{
  "_format": "hh-sol-artifact-1",
  "contractName": "DecentralizedHealthSystem",
  "sourceName": "contracts/DecentralizedHealthSystem.sol",
  "abi": [
    {
      "anonymous": false,
      "inputs": [
        {
          "indexed": true,
          "internalType": "address",
          "name": "doctorOrPatient",
          "type": "address"
        },
        {
          "indexed": true,
          "internalType": "address",
          "name": "patientWallet",
          "type": "address"
        },
        {
          "indexed": false,
          "internalType": "string",
          "name": "name",
          "type": "string"
        },
        {
          "indexed": false,
          "internalType": "string",
          "name": "residence",
          "type": "string"
        },
        {
          "indexed": false,
          "internalType": "string",
          "name": "result",
          "type": "string"
        },
        {
          "indexed": false,
          "internalType": "uint256",
          "name": "timestamp",
          "type": "uint256"
        }
      ],
      "name": "AnalysisAdded",
      "type": "event"
    },
    {
      "anonymous": false,
      "inputs": [
        {
          "indexed": true,
          "internalType": "address",
          "name": "wallet",
          "type": "address"
        },
        {
          "indexed": false,
          "internalType": "string",
          "name": "name",
          "type": "string"
        },
        {
          "indexed": false,
          "internalType": "string",
          "name": "specialization",
          "type": "string"
        },
        {
          "indexed": false,
          "internalType": "string",
          "name": "location",
          "type": "string"
        }
      ],
      "name": "DoctorRegistered",
      "type": "event"
    },
    {
      "anonymous": false,
      "inputs": [
        {
          "indexed": true,
          "internalType": "address",
          "name": "doctor",
          "type": "address"
        },
        {
          "indexed": true,
          "internalType": "address",
          "name": "wallet",
          "type": "address"
        },
        {
          "indexed": false,
          "internalType": "string",
          "name": "name",
          "type": "string"
        },
        {
          "indexed": false,
          "internalType": "string",
          "name": "residence",
          "type": "string"
        },
        {
          "indexed": false,
          "internalType": "uint256",
          "name": "timestamp",
          "type": "uint256"
        }
      ],
      "name": "PatientAdded",
      "type": "event"
    },
    {
      "anonymous": false,
      "inputs": [
        {
          "indexed": true,
          "internalType": "address",
          "name": "doctor",
          "type": "address"
        },
        {
          "indexed": false,
          "internalType": "uint256",
          "name": "index",
          "type": "uint256"
        }
      ],
      "name": "PatientDeleted",
      "type": "event"
    },
    {
      "inputs": [
        {
          "internalType": "string",
          "name": "_name",
          "type": "string"
        },
        {
          "internalType": "string",
          "name": "_residence",
          "type": "string"
        },
        {
          "internalType": "string",
          "name": "_result",
          "type": "string"
        }
      ],
      "name": "addAnalysis",
      "outputs": [],
      "stateMutability": "nonpayable",
      "type": "function"
    },
    {
      "inputs": [
        {
          "internalType": "string",
          "name": "_name",
          "type": "string"
        },
        {
          "internalType": "string",
          "name": "_residence",
          "type": "string"
        },
        {
          "internalType": "address",
          "name": "doctorAddress",
          "type": "address"
        }
      ],
      "name": "addPatient",
      "outputs": [],
      "stateMutability": "nonpayable",
      "type": "function"
    },
    {
      "inputs": [
        {
          "internalType": "uint256",
          "name": "index",
          "type": "uint256"
        }
      ],
      "name": "deletePatient",
      "outputs": [],
      "stateMutability": "nonpayable",
      "type": "function"
    },
    {
      "inputs": [
        {
          "internalType": "uint256",
          "name": "",
          "type": "uint256"
        }
      ],
      "name": "doctorList",
      "outputs": [
        {
          "internalType": "address",
          "name": "",
          "type": "address"
        }
      ],
      "stateMutability": "view",
      "type": "function"
    },
    {
      "inputs": [
        {
          "internalType": "address",
          "name": "",
          "type": "address"
        },
        {
          "internalType": "uint256",
          "name": "",
          "type": "uint256"
        }
      ],
      "name": "doctorToPatients",
      "outputs": [
        {
          "internalType": "address",
          "name": "wallet",
          "type": "address"
        },
        {
          "internalType": "string",
          "name": "name",
          "type": "string"
        },
        {
          "internalType": "string",
          "name": "residence",
          "type": "string"
        },
        {
          "internalType": "uint256",
          "name": "timestamp",
          "type": "uint256"
        }
      ],
      "stateMutability": "view",
      "type": "function"
    },
    {
      "inputs": [
        {
          "internalType": "address",
          "name": "",
          "type": "address"
        }
      ],
      "name": "doctors",
      "outputs": [
        {
          "internalType": "string",
          "name": "name",
          "type": "string"
        },
        {
          "internalType": "string",
          "name": "specialization",
          "type": "string"
        },
        {
          "internalType": "string",
          "name": "hospitalLocation",
          "type": "string"
        },
        {
          "internalType": "address",
          "name": "wallet",
          "type": "address"
        }
      ],
      "stateMutability": "view",
      "type": "function"
    },
    {
      "inputs": [],
      "name": "getAllDoctors",
      "outputs": [
        {
          "components": [
            {
              "internalType": "string",
              "name": "name",
              "type": "string"
            },
            {
              "internalType": "string",
              "name": "specialization",
              "type": "string"
            },
            {
              "internalType": "string",
              "name": "hospitalLocation",
              "type": "string"
            },
            {
              "internalType": "address",
              "name": "wallet",
              "type": "address"
            }
          ],
          "internalType": "struct DecentralizedHealthSystem.Doctor[]",
          "name": "",
          "type": "tuple[]"
        }
      ],
      "stateMutability": "view",
      "type": "function"
    },
    {
      "inputs": [
        {
          "internalType": "address",
          "name": "_user",
          "type": "address"
        }
      ],
      "name": "getHistory",
      "outputs": [
        {
          "components": [
            {
              "internalType": "address",
              "name": "patientWallet",
              "type": "address"
            },
            {
              "internalType": "string",
              "name": "name",
              "type": "string"
            },
            {
              "internalType": "string",
              "name": "residence",
              "type": "string"
            },
            {
              "internalType": "string",
              "name": "result",
              "type": "string"
            },
            {
              "internalType": "uint256",
              "name": "timestamp",
              "type": "uint256"
            }
          ],
          "internalType": "struct DecentralizedHealthSystem.Analysis[]",
          "name": "",
          "type": "tuple[]"
        }
      ],
      "stateMutability": "view",
      "type": "function"
    },
    {
      "inputs": [
        {
          "internalType": "address",
          "name": "_doctor",
          "type": "address"
        }
      ],
      "name": "getPatientsByDoctor",
      "outputs": [
        {
          "components": [
            {
              "internalType": "address",
              "name": "wallet",
              "type": "address"
            },
            {
              "internalType": "string",
              "name": "name",
              "type": "string"
            },
            {
              "internalType": "string",
              "name": "residence",
              "type": "string"
            },
            {
              "internalType": "uint256",
              "name": "timestamp",
              "type": "uint256"
            }
          ],
          "internalType": "struct DecentralizedHealthSystem.Patient[]",
          "name": "",
          "type": "tuple[]"
        }
      ],
      "stateMutability": "view",
      "type": "function"
    },
    {
      "inputs": [
        {
          "internalType": "address",
          "name": "_addr",
          "type": "address"
        }
      ],
      "name": "isDoctor",
      "outputs": [
        {
          "internalType": "bool",
          "name": "",
          "type": "bool"
        }
      ],
      "stateMutability": "view",
      "type": "function"
    },
    {
      "inputs": [
        {
          "internalType": "string",
          "name": "_name",
          "type": "string"
        },
        {
          "internalType": "string",
          "name": "_specialization",
          "type": "string"
        },
        {
          "internalType": "string",
          "name": "_hospitalLocation",
          "type": "string"
        }
      ],
      "name": "registerDoctor",
      "outputs": [],
      "stateMutability": "nonpayable",
      "type": "function"
    },
    {
      "inputs": [
        {
          "internalType": "address",
          "name": "",
          "type": "address"
        },
        {
          "internalType": "uint256",
          "name": "",
          "type": "uint256"
        }
      ],
      "name": "userHistory",
      "outputs": [
        {
          "internalType": "address",
          "name": "patientWallet",
          "type": "address"
        },
        {
          "internalType": "string",
          "name": "name",
          "type": "string"
        },
        {
          "internalType": "string",
          "name": "residence",
          "type": "string"
        },
        {
          "internalType": "string",
          "name": "result",
          "type": "string"
        },
        {
          "internalType": "uint256",
          "name": "timestamp",
          "type": "uint256"
        }
      ],
      "stateMutability": "view",
      "type": "function"
    }
  ],
  "bytecode": "0x608060405234801561001057600080fd5b50612b49806100206000396000f3fe608060405234801561001057600080fd5b50600436106100b45760003560e01c8063996440c611610071578063996440c6146101b5578063a9583c22146101e5578063c70d818e14610218578063deb04fba1461024b578063f0d9509014610267578063fa528edb14610285576100b4565b8063022ea4ba146100b9578063127ca4b4146100e957806322e8b9901461011957806350c7a9121461014d57806367e57482146101695780638039681114610185575b600080fd5b6100d360048036038101906100ce9190611a92565b6102a1565b6040516100e09190611ca3565b60405180910390f35b61010360048036038101906100fe9190611cf1565b6104c3565b6040516101109190611d2d565b60405180910390f35b610133600480360381019061012e9190611d48565b610502565b604051610144959493929190611de1565b60405180910390f35b61016760048036038101906101629190611f7e565b61070d565b005b610183600480360381019061017e9190611cf1565b61095e565b005b61019f600480360381019061019a9190611a92565b610ca2565b6040516101ac919061216b565b60405180910390f35b6101cf60048036038101906101ca9190611a92565b610f56565b6040516101dc91906121a8565b60405180910390f35b6101ff60048036038101906101fa9190611a92565b610faf565b60405161020f94939291906121c3565b60405180910390f35b610232600480360381019061022d9190611d48565b611197565b604051610242949392919061221d565b60405180910390f35b61026560048036038101906102609190612270565b611314565b005b61026f6114a0565b60405161027c919061242e565b60405180910390f35b61029f600480360381019061029a9190611f7e565b6117db565b005b6060600260008373ffffffffffffffffffffffffffffffffffffffff1673ffffffffffffffffffffffffffffffffffffffff168152602001908152602001600020805480602002602001604051908101604052809291908181526020016000905b828210156104b857838290600052602060002090600402016040518060800160405290816000820160009054906101000a900473ffffffffffffffffffffffffffffffffffffffff1673ffffffffffffffffffffffffffffffffffffffff1673ffffffffffffffffffffffffffffffffffffffff16815260200160018201805461038b9061247f565b80601f01602080910402602001604051908101604052809291908181526020018280546103b79061247f565b80156104045780601f106103d957610100808354040283529160200191610404565b820191906000526020600020905b8154815290600101906020018083116103e757829003601f168201915b5050505050815260200160028201805461041d9061247f565b80601f01602080910402602001604051908101604052809291908181526020018280546104499061247f565b80156104965780601f1061046b57610100808354040283529160200191610496565b820191906000526020600020905b81548152906001019060200180831161047957829003601f168201915b5050505050815260200160038201548152505081526020019060010190610302565b505050509050919050565b600181815481106104d357600080fd5b906000526020600020016000915054906101000a900473ffffffffffffffffffffffffffffffffffffffff1681565b6003602052816000526040600020818154811061051e57600080fd5b9060005260206000209060050201600091509150508060000160009054906101000a900473ffffffffffffffffffffffffffffffffffffffff16908060010180546105689061247f565b80601f01602080910402602001604051908101604052809291908181526020018280546105949061247f565b80156105e15780601f106105b6576101008083540402835291602001916105e1565b820191906000526020600020905b8154815290600101906020018083116105c457829003601f168201915b5050505050908060020180546105f69061247f565b80601f01602080910402602001604051908101604052809291908181526020018280546106229061247f565b801561066f5780601f106106445761010080835404028352916020019161066f565b820191906000526020600020905b81548152906001019060200180831161065257829003601f168201915b5050505050908060030180546106849061247f565b80601f01602080910402602001604051908101604052809291908181526020018280546106b09061247f565b80156106fd5780601f106106d2576101008083540402835291602001916106fd565b820191906000526020600020905b8154815290600101906020018083116106e057829003601f168201915b5050505050908060040154905085565b60008060003373ffffffffffffffffffffffffffffffffffffffff1673ffffffffffffffffffffffffffffffffffffffff168152602001908152602001600020600001805461075b9061247f565b90501461079d576040517f08c379a0000000000000000000000000000000000000000000000000000000008152600401610794906124fc565b60405180910390fd5b600060405180608001604052808581526020018481526020018381526020013373ffffffffffffffffffffffffffffffffffffffff168152509050806000803373ffffffffffffffffffffffffffffffffffffffff1673ffffffffffffffffffffffffffffffffffffffff168152602001908152602001600020600082015181600001908161082c91906126c8565b50602082015181600101908161084291906126c8565b50604082015181600201908161085891906126c8565b5060608201518160030160006101000a81548173ffffffffffffffffffffffffffffffffffffffff021916908373ffffffffffffffffffffffffffffffffffffffff1602179055509050506001339080600181540180825580915050600190039060005260206000200160009091909190916101000a81548173ffffffffffffffffffffffffffffffffffffffff021916908373ffffffffffffffffffffffffffffffffffffffff1602179055503373ffffffffffffffffffffffffffffffffffffffff167f6ec2d4f29ace1bfeec4e3323ae5cd8987538be3c8fec51a7752861585ff64e038585856040516109509392919061279a565b60405180910390a250505050565b600260003373ffffffffffffffffffffffffffffffffffffffff1673ffffffffffffffffffffffffffffffffffffffff1681526020019081526020016000208054905081106109e2576040517f08c379a00000000000000000000000000000000000000000000000000000000081526004016109d990612832565b60405180910390fd5b60006001600260003373ffffffffffffffffffffffffffffffffffffffff1673ffffffffffffffffffffffffffffffffffffffff16815260200190815260200160002080549050610a339190612881565b9050808214610b9957600260003373ffffffffffffffffffffffffffffffffffffffff1673ffffffffffffffffffffffffffffffffffffffff1681526020019081526020016000208181548110610a8d57610a8c6128b5565b5b9060005260206000209060040201600260003373ffffffffffffffffffffffffffffffffffffffff1673ffffffffffffffffffffffffffffffffffffffff1681526020019081526020016000208381548110610aec57610aeb6128b5565b5b90600052602060002090600402016000820160009054906101000a900473ffffffffffffffffffffffffffffffffffffffff168160000160006101000a81548173ffffffffffffffffffffffffffffffffffffffff021916908373ffffffffffffffffffffffffffffffffffffffff16021790555060018201816001019081610b7591906128fa565b5060028201816002019081610b8a91906128fa565b50600382015481600301559050505b600260003373ffffffffffffffffffffffffffffffffffffffff1673ffffffffffffffffffffffffffffffffffffffff168152602001908152602001600020805480610be857610be76129e2565b5b6001900381819060005260206000209060040201600080820160006101000a81549073ffffffffffffffffffffffffffffffffffffffff0219169055600182016000610c349190611985565b600282016000610c449190611985565b6003820160009055505090553373ffffffffffffffffffffffffffffffffffffffff167fde18f54a47806f23a19b27142a63f9dcd9a52a779bbe36488701d9b3a1bb102b83604051610c969190612a11565b60405180910390a25050565b6060600360008373ffffffffffffffffffffffffffffffffffffffff1673ffffffffffffffffffffffffffffffffffffffff168152602001908152602001600020805480602002602001604051908101604052809291908181526020016000905b82821015610f4b57838290600052602060002090600502016040518060a00160405290816000820160009054906101000a900473ffffffffffffffffffffffffffffffffffffffff1673ffffffffffffffffffffffffffffffffffffffff1673ffffffffffffffffffffffffffffffffffffffff168152602001600182018054610d8c9061247f565b80601f0160208091040260200160405190810160405280929190818152602001828054610db89061247f565b8015610e055780601f10610dda57610100808354040283529160200191610e05565b820191906000526020600020905b815481529060010190602001808311610de857829003601f168201915b50505050508152602001600282018054610e1e9061247f565b80601f0160208091040260200160405190810160405280929190818152602001828054610e4a9061247f565b8015610e975780601f10610e6c57610100808354040283529160200191610e97565b820191906000526020600020905b815481529060010190602001808311610e7a57829003601f168201915b50505050508152602001600382018054610eb09061247f565b80601f0160208091040260200160405190810160405280929190818152602001828054610edc9061247f565b8015610f295780601f10610efe57610100808354040283529160200191610f29565b820191906000526020600020905b815481529060010190602001808311610f0c57829003601f168201915b5050505050815260200160048201548152505081526020019060010190610d03565b505050509050919050565b6000806000808473ffffffffffffffffffffffffffffffffffffffff1673ffffffffffffffffffffffffffffffffffffffff1681526020019081526020016000206000018054610fa59061247f565b9050119050919050565b6000602052806000526040600020600091509050806000018054610fd29061247f565b80601f0160208091040260200160405190810160405280929190818152602001828054610ffe9061247f565b801561104b5780601f106110205761010080835404028352916020019161104b565b820191906000526020600020905b81548152906001019060200180831161102e57829003601f168201915b5050505050908060010180546110609061247f565b80601f016020809104026020016040519081016040528092919081815260200182805461108c9061247f565b80156110d95780601f106110ae576101008083540402835291602001916110d9565b820191906000526020600020905b8154815290600101906020018083116110bc57829003601f168201915b5050505050908060020180546110ee9061247f565b80601f016020809104026020016040519081016040528092919081815260200182805461111a9061247f565b80156111675780601f1061113c57610100808354040283529160200191611167565b820191906000526020600020905b81548152906001019060200180831161114a57829003601f168201915b5050505050908060030160009054906101000a900473ffffffffffffffffffffffffffffffffffffffff16905084565b600260205281600052604060002081815481106111b357600080fd5b9060005260206000209060040201600091509150508060000160009054906101000a900473ffffffffffffffffffffffffffffffffffffffff16908060010180546111fd9061247f565b80601f01602080910402602001604051908101604052809291908181526020018280546112299061247f565b80156112765780601f1061124b57610100808354040283529160200191611276565b820191906000526020600020905b81548152906001019060200180831161125957829003601f168201915b50505050509080600201805461128b9061247f565b80601f01602080910402602001604051908101604052809291908181526020018280546112b79061247f565b80156113045780601f106112d957610100808354040283529160200191611304565b820191906000526020600020905b8154815290600101906020018083116112e757829003601f168201915b5050505050908060030154905084565b600260008273ffffffffffffffffffffffffffffffffffffffff1673ffffffffffffffffffffffffffffffffffffffff16815260200190815260200160002060405180608001604052803373ffffffffffffffffffffffffffffffffffffffff16815260200185815260200184815260200142815250908060018154018082558091505060019003906000526020600020906004020160009091909190915060008201518160000160006101000a81548173ffffffffffffffffffffffffffffffffffffffff021916908373ffffffffffffffffffffffffffffffffffffffff160217905550602082015181600101908161140f91906126c8565b50604082015181600201908161142591906126c8565b506060820151816003015550503373ffffffffffffffffffffffffffffffffffffffff168173ffffffffffffffffffffffffffffffffffffffff167f9fe05ae5f1080b4fa7d6e442ef6a238fa485c145ee4c5f6098c4254cf3bfec1b85854260405161149393929190612a2c565b60405180910390a3505050565b6060600060018054905067ffffffffffffffff8111156114c3576114c2611e53565b5b6040519080825280602002602001820160405280156114fc57816020015b6114e96119c5565b8152602001906001900390816114e15790505b50905060005b6001805490508110156117d35760008060018381548110611526576115256128b5565b5b9060005260206000200160009054906101000a900473ffffffffffffffffffffffffffffffffffffffff1673ffffffffffffffffffffffffffffffffffffffff1673ffffffffffffffffffffffffffffffffffffffff1681526020019081526020016000206040518060800160405290816000820180546115a69061247f565b80601f01602080910402602001604051908101604052809291908181526020018280546115d29061247f565b801561161f5780601f106115f45761010080835404028352916020019161161f565b820191906000526020600020905b81548152906001019060200180831161160257829003601f168201915b505050505081526020016001820180546116389061247f565b80601f01602080910402602001604051908101604052809291908181526020018280546116649061247f565b80156116b15780601f10611686576101008083540402835291602001916116b1565b820191906000526020600020905b81548152906001019060200180831161169457829003601f168201915b505050505081526020016002820180546116ca9061247f565b80601f01602080910402602001604051908101604052809291908181526020018280546116f69061247f565b80156117435780601f1061171857610100808354040283529160200191611743565b820191906000526020600020905b81548152906001019060200180831161172657829003601f168201915b505050505081526020016003820160009054906101000a900473ffffffffffffffffffffffffffffffffffffffff1673ffffffffffffffffffffffffffffffffffffffff1673ffffffffffffffffffffffffffffffffffffffff16815250508282815181106117b5576117b46128b5565b5b602002602001018190525080806117cb90612a71565b915050611502565b508091505090565b600360003373ffffffffffffffffffffffffffffffffffffffff1673ffffffffffffffffffffffffffffffffffffffff1681526020019081526020016000206040518060a001604052803373ffffffffffffffffffffffffffffffffffffffff16815260200185815260200184815260200183815260200142815250908060018154018082558091505060019003906000526020600020906005020160009091909190915060008201518160000160006101000a81548173ffffffffffffffffffffffffffffffffffffffff021916908373ffffffffffffffffffffffffffffffffffffffff16021790555060208201518160010190816118dc91906126c8565b5060408201518160020190816118f291906126c8565b50606082015181600301908161190891906126c8565b506080820151816004015550503373ffffffffffffffffffffffffffffffffffffffff163373ffffffffffffffffffffffffffffffffffffffff167fab4362f4cf758f6ea8bdcbab0a76dd112c3e94bedf9c574fd8b3630e1f79b277858585426040516119789493929190612ab9565b60405180910390a3505050565b5080546119919061247f565b6000825580601f106119a357506119c2565b601f0160209004906000526020600020908101906119c19190611a03565b5b50565b6040518060800160405280606081526020016060815260200160608152602001600073ffffffffffffffffffffffffffffffffffffffff1681525090565b5b80821115611a1c576000816000905550600101611a04565b5090565b6000604051905090565b600080fd5b600080fd5b600073ffffffffffffffffffffffffffffffffffffffff82169050919050565b6000611a5f82611a34565b9050919050565b611a6f81611a54565b8114611a7a57600080fd5b50565b600081359050611a8c81611a66565b92915050565b600060208284031215611aa857611aa7611a2a565b5b6000611ab684828501611a7d565b91505092915050565b600081519050919050565b600082825260208201905092915050565b6000819050602082019050919050565b611af481611a54565b82525050565b600081519050919050565b600082825260208201905092915050565b60005b83811015611b34578082015181840152602081019050611b19565b60008484015250505050565b6000601f19601f8301169050919050565b6000611b5c82611afa565b611b668185611b05565b9350611b76818560208601611b16565b611b7f81611b40565b840191505092915050565b6000819050919050565b611b9d81611b8a565b82525050565b6000608083016000830151611bbb6000860182611aeb565b5060208301518482036020860152611bd38282611b51565b91505060408301518482036040860152611bed8282611b51565b9150506060830151611c026060860182611b94565b508091505092915050565b6000611c198383611ba3565b905092915050565b6000602082019050919050565b6000611c3982611abf565b611c438185611aca565b935083602082028501611c5585611adb565b8060005b85811015611c915784840389528151611c728582611c0d565b9450611c7d83611c21565b925060208a01995050600181019050611c59565b50829750879550505050505092915050565b60006020820190508181036000830152611cbd8184611c2e565b905092915050565b611cce81611b8a565b8114611cd957600080fd5b50565b600081359050611ceb81611cc5565b92915050565b600060208284031215611d0757611d06611a2a565b5b6000611d1584828501611cdc565b91505092915050565b611d2781611a54565b82525050565b6000602082019050611d426000830184611d1e565b92915050565b60008060408385031215611d5f57611d5e611a2a565b5b6000611d6d85828601611a7d565b9250506020611d7e85828601611cdc565b9150509250929050565b600082825260208201905092915050565b6000611da482611afa565b611dae8185611d88565b9350611dbe818560208601611b16565b611dc781611b40565b840191505092915050565b611ddb81611b8a565b82525050565b600060a082019050611df66000830188611d1e565b8181036020830152611e088187611d99565b90508181036040830152611e1c8186611d99565b90508181036060830152611e308185611d99565b9050611e3f6080830184611dd2565b9695505050505050565b600080fd5b600080fd5b7f4e487b7100000000000000000000000000000000000000000000000000000000600052604160045260246000fd5b611e8b82611b40565b810181811067ffffffffffffffff82111715611eaa57611ea9611e53565b5b80604052505050565b6000611ebd611a20565b9050611ec98282611e82565b919050565b600067ffffffffffffffff821115611ee957611ee8611e53565b5b611ef282611b40565b9050602081019050919050565b82818337600083830152505050565b6000611f21611f1c84611ece565b611eb3565b905082815260208101848484011115611f3d57611f3c611e4e565b5b611f48848285611eff565b509392505050565b600082601f830112611f6557611f64611e49565b5b8135611f75848260208601611f0e565b91505092915050565b600080600060608486031215611f9757611f96611a2a565b5b600084013567ffffffffffffffff811115611fb557611fb4611a2f565b5b611fc186828701611f50565b935050602084013567ffffffffffffffff811115611fe257611fe1611a2f565b5b611fee86828701611f50565b925050604084013567ffffffffffffffff81111561200f5761200e611a2f565b5b61201b86828701611f50565b9150509250925092565b600081519050919050565b600082825260208201905092915050565b6000819050602082019050919050565b600060a0830160008301516120696000860182611aeb565b50602083015184820360208601526120818282611b51565b9150506040830151848203604086015261209b8282611b51565b915050606083015184820360608601526120b58282611b51565b91505060808301516120ca6080860182611b94565b508091505092915050565b60006120e18383612051565b905092915050565b6000602082019050919050565b600061210182612025565b61210b8185612030565b93508360208202850161211d85612041565b8060005b85811015612159578484038952815161213a85826120d5565b9450612145836120e9565b925060208a01995050600181019050612121565b50829750879550505050505092915050565b6000602082019050818103600083015261218581846120f6565b905092915050565b60008115159050919050565b6121a28161218d565b82525050565b60006020820190506121bd6000830184612199565b92915050565b600060808201905081810360008301526121dd8187611d99565b905081810360208301526121f18186611d99565b905081810360408301526122058185611d99565b90506122146060830184611d1e565b95945050505050565b60006080820190506122326000830187611d1e565b81810360208301526122448186611d99565b905081810360408301526122588185611d99565b90506122676060830184611dd2565b95945050505050565b60008060006060848603121561228957612288611a2a565b5b600084013567ffffffffffffffff8111156122a7576122a6611a2f565b5b6122b386828701611f50565b935050602084013567ffffffffffffffff8111156122d4576122d3611a2f565b5b6122e086828701611f50565b92505060406122f186828701611a7d565b9150509250925092565b600081519050919050565b600082825260208201905092915050565b6000819050602082019050919050565b600060808301600083015184820360008601526123448282611b51565b9150506020830151848203602086015261235e8282611b51565b915050604083015184820360408601526123788282611b51565b915050606083015161238d6060860182611aeb565b508091505092915050565b60006123a48383612327565b905092915050565b6000602082019050919050565b60006123c4826122fb565b6123ce8185612306565b9350836020820285016123e085612317565b8060005b8581101561241c57848403895281516123fd8582612398565b9450612408836123ac565b925060208a019950506001810190506123e4565b50829750879550505050505092915050565b6000602082019050818103600083015261244881846123b9565b905092915050565b7f4e487b7100000000000000000000000000000000000000000000000000000000600052602260045260246000fd5b6000600282049050600182168061249757607f821691505b6020821081036124aa576124a9612450565b5b50919050565b7f446f63746f7220616c7265616479207265676973746572656400000000000000600082015250565b60006124e6601983611d88565b91506124f1826124b0565b602082019050919050565b60006020820190508181036000830152612515816124d9565b9050919050565b60008190508160005260206000209050919050565b60006020601f8301049050919050565b600082821b905092915050565b60006008830261257e7fffffffffffffffffffffffffffffffffffffffffffffffffffffffffffffffff82612541565b6125888683612541565b95508019841693508086168417925050509392505050565b6000819050919050565b60006125c56125c06125bb84611b8a565b6125a0565b611b8a565b9050919050565b6000819050919050565b6125df836125aa565b6125f36125eb826125cc565b84845461254e565b825550505050565b600090565b6126086125fb565b6126138184846125d6565b505050565b5b818110156126375761262c600082612600565b600181019050612619565b5050565b601f82111561267c5761264d8161251c565b61265684612531565b81016020851015612665578190505b61267961267185612531565b830182612618565b50505b505050565b600082821c905092915050565b600061269f60001984600802612681565b1980831691505092915050565b60006126b8838361268e565b9150826002028217905092915050565b6126d182611afa565b67ffffffffffffffff8111156126ea576126e9611e53565b5b6126f4825461247f565b6126ff82828561263b565b600060209050601f8311600181146127325760008415612720578287015190505b61272a85826126ac565b865550612792565b601f1984166127408661251c565b60005b8281101561276857848901518255600182019150602085019450602081019050612743565b868310156127855784890151612781601f89168261268e565b8355505b6001600288020188555050505b505050505050565b600060608201905081810360008301526127b48186611d99565b905081810360208301526127c88185611d99565b905081810360408301526127dc8184611d99565b9050949350505050565b7f496e76616c696420696e64657800000000000000000000000000000000000000600082015250565b600061281c600d83611d88565b9150612827826127e6565b602082019050919050565b6000602082019050818103600083015261284b8161280f565b9050919050565b7f4e487b7100000000000000000000000000000000000000000000000000000000600052601160045260246000fd5b600061288c82611b8a565b915061289783611b8a565b92508282039050818111156128af576128ae612852565b5b92915050565b7f4e487b7100000000000000000000000000000000000000000000000000000000600052603260045260246000fd5b6000815490506128f38161247f565b9050919050565b8181036129085750506129e0565b612911826128e4565b67ffffffffffffffff81111561292a57612929611e53565b5b612934825461247f565b61293f82828561263b565b6000601f83116001811461296e576000841561295c578287015490505b61296685826126ac565b8655506129d9565b601f19841661297c8761251c565b96506129878661251c565b60005b828110156129af5784890154825560018201915060018501945060208101905061298a565b868310156129cc57848901546129c8601f89168261268e565b8355505b6001600288020188555050505b5050505050505b565b7f4e487b7100000000000000000000000000000000000000000000000000000000600052603160045260246000fd5b6000602082019050612a266000830184611dd2565b92915050565b60006060820190508181036000830152612a468186611d99565b90508181036020830152612a5a8185611d99565b9050612a696040830184611dd2565b949350505050565b6000612a7c82611b8a565b91507fffffffffffffffffffffffffffffffffffffffffffffffffffffffffffffffff8203612aae57612aad612852565b5b600182019050919050565b60006080820190508181036000830152612ad38187611d99565b90508181036020830152612ae78186611d99565b90508181036040830152612afb8185611d99565b9050612b0a6060830184611dd2565b9594505050505056fea26469706673582212204ff589f2a252e0c91e90cc9604186f033f91b394f83b616fb813e437d0694cdc64736f6c63430008140033",
  "linkReferences": {},
  "deployedLinkReferences": {}
}