{
  "_format": "hh-sol-artifact-1",
  "contractName": "DecentralizedHealthSystem",
  "sourceName": "contracts/DecentralizedHealthSystem.sol",
  "abi": [
    {
      "anonymous": false,
      "inputs": [
        {
          "indexed": true,
          "internalType": "address",
          "name": "user",
          "type": "address"
        },
        {
          "indexed": false,
          "internalType": "string",
          "name": "name",
          "type": "string"
        },
        {
          "indexed": false,
          "internalType": "string",
          "name": "residence",
          "type": "string"
        },
        {
          "indexed": false,
          "internalType": "string",
          "name": "result",
          "type": "string"
        },
        {
          "indexed": false,
          "internalType": "uint256",
          "name": "timestamp",
          "type": "uint256"
        }
      ],
      "name": "AnalysisAdded",
      "type": "event"
    },
    {
      "anonymous": false,
      "inputs": [
        {
          "indexed": true,
          "internalType": "address",
          "name": "wallet",
          "type": "address"
        },
        {
          "indexed": false,
          "internalType": "string",
          "name": "name",
          "type": "string"
        },
        {
          "indexed": false,
          "internalType": "string",
          "name": "specialization",
          "type": "string"
        },
        {
          "indexed": false,
          "internalType": "string",
          "name": "location",
          "type": "string"
        }
      ],
      "name": "DoctorRegistered",
      "type": "event"
    },
    {
      "anonymous": false,
      "inputs": [
        {
          "indexed": true,
          "internalType": "address",
          "name": "doctor",
          "type": "address"
        },
        {
          "indexed": false,
          "internalType": "string",
          "name": "name",
          "type": "string"
        },
        {
          "indexed": false,
          "internalType": "string",
          "name": "residence",
          "type": "string"
        },
        {
          "indexed": false,
          "internalType": "uint256",
          "name": "timestamp",
          "type": "uint256"
        }
      ],
      "name": "PatientAdded",
      "type": "event"
    },
    {
      "anonymous": false,
      "inputs": [
        {
          "indexed": true,
          "internalType": "address",
          "name": "doctor",
          "type": "address"
        },
        {
          "indexed": false,
          "internalType": "uint256",
          "name": "index",
          "type": "uint256"
        }
      ],
      "name": "PatientDeleted",
      "type": "event"
    },
    {
      "inputs": [
        {
          "internalType": "string",
          "name": "_name",
          "type": "string"
        },
        {
          "internalType": "string",
          "name": "_residence",
          "type": "string"
        },
        {
          "internalType": "string",
          "name": "_result",
          "type": "string"
        }
      ],
      "name": "addAnalysis",
      "outputs": [],
      "stateMutability": "nonpayable",
      "type": "function"
    },
    {
      "inputs": [
        {
          "internalType": "string",
          "name": "_name",
          "type": "string"
        },
        {
          "internalType": "string",
          "name": "_residence",
          "type": "string"
        }
      ],
      "name": "addPatient",
      "outputs": [],
      "stateMutability": "nonpayable",
      "type": "function"
    },
    {
      "inputs": [
        {
          "internalType": "uint256",
          "name": "index",
          "type": "uint256"
        }
      ],
      "name": "deletePatient",
      "outputs": [],
      "stateMutability": "nonpayable",
      "type": "function"
    },
    {
      "inputs": [
        {
          "internalType": "uint256",
          "name": "",
          "type": "uint256"
        }
      ],
      "name": "doctorList",
      "outputs": [
        {
          "internalType": "address",
          "name": "",
          "type": "address"
        }
      ],
      "stateMutability": "view",
      "type": "function"
    },
    {
      "inputs": [
        {
          "internalType": "address",
          "name": "",
          "type": "address"
        },
        {
          "internalType": "uint256",
          "name": "",
          "type": "uint256"
        }
      ],
      "name": "doctorToPatients",
      "outputs": [
        {
          "internalType": "string",
          "name": "name",
          "type": "string"
        },
        {
          "internalType": "string",
          "name": "residence",
          "type": "string"
        },
        {
          "internalType": "uint256",
          "name": "timestamp",
          "type": "uint256"
        }
      ],
      "stateMutability": "view",
      "type": "function"
    },
    {
      "inputs": [
        {
          "internalType": "address",
          "name": "",
          "type": "address"
        }
      ],
      "name": "doctors",
      "outputs": [
        {
          "internalType": "string",
          "name": "name",
          "type": "string"
        },
        {
          "internalType": "string",
          "name": "specialization",
          "type": "string"
        },
        {
          "internalType": "string",
          "name": "hospitalLocation",
          "type": "string"
        },
        {
          "internalType": "address",
          "name": "wallet",
          "type": "address"
        }
      ],
      "stateMutability": "view",
      "type": "function"
    },
    {
      "inputs": [],
      "name": "getAllDoctors",
      "outputs": [
        {
          "components": [
            {
              "internalType": "string",
              "name": "name",
              "type": "string"
            },
            {
              "internalType": "string",
              "name": "specialization",
              "type": "string"
            },
            {
              "internalType": "string",
              "name": "hospitalLocation",
              "type": "string"
            },
            {
              "internalType": "address",
              "name": "wallet",
              "type": "address"
            }
          ],
          "internalType": "struct DecentralizedHealthSystem.Doctor[]",
          "name": "",
          "type": "tuple[]"
        }
      ],
      "stateMutability": "view",
      "type": "function"
    },
    {
      "inputs": [
        {
          "internalType": "address",
          "name": "_user",
          "type": "address"
        }
      ],
      "name": "getHistory",
      "outputs": [
        {
          "components": [
            {
              "internalType": "string",
              "name": "name",
              "type": "string"
            },
            {
              "internalType": "string",
              "name": "residence",
              "type": "string"
            },
            {
              "internalType": "string",
              "name": "result",
              "type": "string"
            },
            {
              "internalType": "uint256",
              "name": "timestamp",
              "type": "uint256"
            }
          ],
          "internalType": "struct DecentralizedHealthSystem.Analysis[]",
          "name": "",
          "type": "tuple[]"
        }
      ],
      "stateMutability": "view",
      "type": "function"
    },
    {
      "inputs": [
        {
          "internalType": "address",
          "name": "_doctor",
          "type": "address"
        }
      ],
      "name": "getPatientsByDoctor",
      "outputs": [
        {
          "components": [
            {
              "internalType": "string",
              "name": "name",
              "type": "string"
            },
            {
              "internalType": "string",
              "name": "residence",
              "type": "string"
            },
            {
              "internalType": "uint256",
              "name": "timestamp",
              "type": "uint256"
            }
          ],
          "internalType": "struct DecentralizedHealthSystem.Patient[]",
          "name": "",
          "type": "tuple[]"
        }
      ],
      "stateMutability": "view",
      "type": "function"
    },
    {
      "inputs": [
        {
          "internalType": "address",
          "name": "_addr",
          "type": "address"
        }
      ],
      "name": "isDoctor",
      "outputs": [
        {
          "internalType": "bool",
          "name": "",
          "type": "bool"
        }
      ],
      "stateMutability": "view",
      "type": "function"
    },
    {
      "inputs": [
        {
          "internalType": "string",
          "name": "_name",
          "type": "string"
        },
        {
          "internalType": "string",
          "name": "_specialization",
          "type": "string"
        },
        {
          "internalType": "string",
          "name": "_hospitalLocation",
          "type": "string"
        }
      ],
      "name": "registerDoctor",
      "outputs": [],
      "stateMutability": "nonpayable",
      "type": "function"
    },
    {
      "inputs": [
        {
          "internalType": "address",
          "name": "",
          "type": "address"
        },
        {
          "internalType": "uint256",
          "name": "",
          "type": "uint256"
        }
      ],
      "name": "userHistory",
      "outputs": [
        {
          "internalType": "string",
          "name": "name",
          "type": "string"
        },
        {
          "internalType": "string",
          "name": "residence",
          "type": "string"
        },
        {
          "internalType": "string",
          "name": "result",
          "type": "string"
        },
        {
          "internalType": "uint256",
          "name": "timestamp",
          "type": "uint256"
        }
      ],
      "stateMutability": "view",
      "type": "function"
    }
  ],
  "bytecode": "0x608060405234801561001057600080fd5b50612add806100206000396000f3fe608060405234801561001057600080fd5b50600436106100b45760003560e01c8063803968111161007157806380396811146101a0578063996440c6146101d0578063a9583c2214610200578063c70d818e14610233578063f0d9509014610265578063fa528edb14610283576100b4565b8063022ea4ba146100b9578063127ca4b4146100e957806322e8b99014610119578063239ee6c11461014c57806350c7a9121461016857806367e5748214610184575b600080fd5b6100d360048036038101906100ce91906119c1565b61029f565b6040516100e09190611bb0565b60405180910390f35b61010360048036038101906100fe9190611bfe565b61046b565b6040516101109190611c3a565b60405180910390f35b610133600480360381019061012e9190611c55565b6104aa565b6040516101439493929190611cee565b60405180910390f35b61016660048036038101906101619190611e7d565b61068f565b005b610182600480360381019061017d9190611ef5565b61094c565b005b61019e60048036038101906101999190611bfe565b610b9d565b005b6101ba60048036038101906101b591906119c1565b610e53565b6040516101c791906120cf565b60405180910390f35b6101ea60048036038101906101e591906119c1565b6110b1565b6040516101f7919061210c565b60405180910390f35b61021a600480360381019061021591906119c1565b61110a565b60405161022a9493929190612127565b60405180910390f35b61024d60048036038101906102489190611c55565b6112f2565b60405161025c93929190612181565b60405180910390f35b61026d611449565b60405161027a9190612308565b60405180910390f35b61029d60048036038101906102989190611ef5565b611784565b005b6060600260008373ffffffffffffffffffffffffffffffffffffffff1673ffffffffffffffffffffffffffffffffffffffff168152602001908152602001600020805480602002602001604051908101604052809291908181526020016000905b82821015610460578382906000526020600020906003020160405180606001604052908160008201805461033390612359565b80601f016020809104026020016040519081016040528092919081815260200182805461035f90612359565b80156103ac5780601f10610381576101008083540402835291602001916103ac565b820191906000526020600020905b81548152906001019060200180831161038f57829003601f168201915b505050505081526020016001820180546103c590612359565b80601f01602080910402602001604051908101604052809291908181526020018280546103f190612359565b801561043e5780601f106104135761010080835404028352916020019161043e565b820191906000526020600020905b81548152906001019060200180831161042157829003601f168201915b5050505050815260200160028201548152505081526020019060010190610300565b505050509050919050565b6001818154811061047b57600080fd5b906000526020600020016000915054906101000a900473ffffffffffffffffffffffffffffffffffffffff1681565b600360205281600052604060002081815481106104c657600080fd5b9060005260206000209060040201600091509150508060000180546104ea90612359565b80601f016020809104026020016040519081016040528092919081815260200182805461051690612359565b80156105635780601f1061053857610100808354040283529160200191610563565b820191906000526020600020905b81548152906001019060200180831161054657829003601f168201915b50505050509080600101805461057890612359565b80601f01602080910402602001604051908101604052809291908181526020018280546105a490612359565b80156105f15780601f106105c6576101008083540402835291602001916105f1565b820191906000526020600020905b8154815290600101906020018083116105d457829003601f168201915b50505050509080600201805461060690612359565b80601f016020809104026020016040519081016040528092919081815260200182805461063290612359565b801561067f5780601f106106545761010080835404028352916020019161067f565b820191906000526020600020905b81548152906001019060200180831161066257829003601f168201915b5050505050908060030154905084565b6000805b6001805490508110156107ca57826040516020016106b191906123c6565b60405160208183030381529060405280519060200120600080600184815481106106de576106dd6123dd565b5b9060005260206000200160009054906101000a900473ffffffffffffffffffffffffffffffffffffffff1673ffffffffffffffffffffffffffffffffffffffff1673ffffffffffffffffffffffffffffffffffffffff16815260200190815260200160002060020160405160200161075691906124a4565b60405160208183030381529060405280519060200120036107b75760018181548110610785576107846123dd565b5b9060005260206000200160009054906101000a900473ffffffffffffffffffffffffffffffffffffffff1691506107ca565b80806107c2906124ea565b915050610693565b50600073ffffffffffffffffffffffffffffffffffffffff168173ffffffffffffffffffffffffffffffffffffffff160361083a576040517f08c379a00000000000000000000000000000000000000000000000000000000081526004016108319061257e565b60405180910390fd5b600260008273ffffffffffffffffffffffffffffffffffffffff1673ffffffffffffffffffffffffffffffffffffffff168152602001908152602001600020604051806060016040528085815260200184815260200142815250908060018154018082558091505060019003906000526020600020906003020160009091909190915060008201518160000190816108d29190612735565b5060208201518160010190816108e89190612735565b506040820151816002015550508073ffffffffffffffffffffffffffffffffffffffff167f0b4e88e257f151d2f8d6d062ba041ec55688176b75692280b4c3af32a157d3c484844260405161093f93929190612181565b60405180910390a2505050565b60008060003373ffffffffffffffffffffffffffffffffffffffff1673ffffffffffffffffffffffffffffffffffffffff168152602001908152602001600020600001805461099a90612359565b9050146109dc576040517f08c379a00000000000000000000000000000000000000000000000000000000081526004016109d390612853565b60405180910390fd5b600060405180608001604052808581526020018481526020018381526020013373ffffffffffffffffffffffffffffffffffffffff168152509050806000803373ffffffffffffffffffffffffffffffffffffffff1673ffffffffffffffffffffffffffffffffffffffff1681526020019081526020016000206000820151816000019081610a6b9190612735565b506020820151816001019081610a819190612735565b506040820151816002019081610a979190612735565b5060608201518160030160006101000a81548173ffffffffffffffffffffffffffffffffffffffff021916908373ffffffffffffffffffffffffffffffffffffffff1602179055509050506001339080600181540180825580915050600190039060005260206000200160009091909190916101000a81548173ffffffffffffffffffffffffffffffffffffffff021916908373ffffffffffffffffffffffffffffffffffffffff1602179055503373ffffffffffffffffffffffffffffffffffffffff167f6ec2d4f29ace1bfeec4e3323ae5cd8987538be3c8fec51a7752861585ff64e03858585604051610b8f93929190612873565b60405180910390a250505050565b600260003373ffffffffffffffffffffffffffffffffffffffff1673ffffffffffffffffffffffffffffffffffffffff168152602001908152602001600020805490508110610c21576040517f08c379a0000000000000000000000000000000000000000000000000000000008152600401610c189061290b565b60405180910390fd5b60006001600260003373ffffffffffffffffffffffffffffffffffffffff1673ffffffffffffffffffffffffffffffffffffffff16815260200190815260200160002080549050610c72919061292b565b9050808214610d7157600260003373ffffffffffffffffffffffffffffffffffffffff1673ffffffffffffffffffffffffffffffffffffffff1681526020019081526020016000208181548110610ccc57610ccb6123dd565b5b9060005260206000209060030201600260003373ffffffffffffffffffffffffffffffffffffffff1673ffffffffffffffffffffffffffffffffffffffff1681526020019081526020016000208381548110610d2b57610d2a6123dd565b5b906000526020600020906003020160008201816000019081610d4d9190612975565b5060018201816001019081610d629190612975565b50600282015481600201559050505b600260003373ffffffffffffffffffffffffffffffffffffffff1673ffffffffffffffffffffffffffffffffffffffff168152602001908152602001600020805480610dc057610dbf612a5d565b5b600190038181906000526020600020906003020160008082016000610de591906118b4565b600182016000610df591906118b4565b6002820160009055505090553373ffffffffffffffffffffffffffffffffffffffff167fde18f54a47806f23a19b27142a63f9dcd9a52a779bbe36488701d9b3a1bb102b83604051610e479190612a8c565b60405180910390a25050565b6060600360008373ffffffffffffffffffffffffffffffffffffffff1673ffffffffffffffffffffffffffffffffffffffff168152602001908152602001600020805480602002602001604051908101604052809291908181526020016000905b828210156110a65783829060005260206000209060040201604051806080016040529081600082018054610ee790612359565b80601f0160208091040260200160405190810160405280929190818152602001828054610f1390612359565b8015610f605780601f10610f3557610100808354040283529160200191610f60565b820191906000526020600020905b815481529060010190602001808311610f4357829003601f168201915b50505050508152602001600182018054610f7990612359565b80601f0160208091040260200160405190810160405280929190818152602001828054610fa590612359565b8015610ff25780601f10610fc757610100808354040283529160200191610ff2565b820191906000526020600020905b815481529060010190602001808311610fd557829003601f168201915b5050505050815260200160028201805461100b90612359565b80601f016020809104026020016040519081016040528092919081815260200182805461103790612359565b80156110845780601f1061105957610100808354040283529160200191611084565b820191906000526020600020905b81548152906001019060200180831161106757829003601f168201915b5050505050815260200160038201548152505081526020019060010190610eb4565b505050509050919050565b6000806000808473ffffffffffffffffffffffffffffffffffffffff1673ffffffffffffffffffffffffffffffffffffffff168152602001908152602001600020600001805461110090612359565b9050119050919050565b600060205280600052604060002060009150905080600001805461112d90612359565b80601f016020809104026020016040519081016040528092919081815260200182805461115990612359565b80156111a65780601f1061117b576101008083540402835291602001916111a6565b820191906000526020600020905b81548152906001019060200180831161118957829003601f168201915b5050505050908060010180546111bb90612359565b80601f01602080910402602001604051908101604052809291908181526020018280546111e790612359565b80156112345780601f1061120957610100808354040283529160200191611234565b820191906000526020600020905b81548152906001019060200180831161121757829003601f168201915b50505050509080600201805461124990612359565b80601f016020809104026020016040519081016040528092919081815260200182805461127590612359565b80156112c25780601f10611297576101008083540402835291602001916112c2565b820191906000526020600020905b8154815290600101906020018083116112a557829003601f168201915b5050505050908060030160009054906101000a900473ffffffffffffffffffffffffffffffffffffffff16905084565b6002602052816000526040600020818154811061130e57600080fd5b90600052602060002090600302016000915091505080600001805461133290612359565b80601f016020809104026020016040519081016040528092919081815260200182805461135e90612359565b80156113ab5780601f10611380576101008083540402835291602001916113ab565b820191906000526020600020905b81548152906001019060200180831161138e57829003601f168201915b5050505050908060010180546113c090612359565b80601f01602080910402602001604051908101604052809291908181526020018280546113ec90612359565b80156114395780601f1061140e57610100808354040283529160200191611439565b820191906000526020600020905b81548152906001019060200180831161141c57829003601f168201915b5050505050908060020154905083565b6060600060018054905067ffffffffffffffff81111561146c5761146b611d52565b5b6040519080825280602002602001820160405280156114a557816020015b6114926118f4565b81526020019060019003908161148a5790505b50905060005b60018054905081101561177c57600080600183815481106114cf576114ce6123dd565b5b9060005260206000200160009054906101000a900473ffffffffffffffffffffffffffffffffffffffff1673ffffffffffffffffffffffffffffffffffffffff1673ffffffffffffffffffffffffffffffffffffffff16815260200190815260200160002060405180608001604052908160008201805461154f90612359565b80601f016020809104026020016040519081016040528092919081815260200182805461157b90612359565b80156115c85780601f1061159d576101008083540402835291602001916115c8565b820191906000526020600020905b8154815290600101906020018083116115ab57829003601f168201915b505050505081526020016001820180546115e190612359565b80601f016020809104026020016040519081016040528092919081815260200182805461160d90612359565b801561165a5780601f1061162f5761010080835404028352916020019161165a565b820191906000526020600020905b81548152906001019060200180831161163d57829003601f168201915b5050505050815260200160028201805461167390612359565b80601f016020809104026020016040519081016040528092919081815260200182805461169f90612359565b80156116ec5780601f106116c1576101008083540402835291602001916116ec565b820191906000526020600020905b8154815290600101906020018083116116cf57829003601f168201915b505050505081526020016003820160009054906101000a900473ffffffffffffffffffffffffffffffffffffffff1673ffffffffffffffffffffffffffffffffffffffff1673ffffffffffffffffffffffffffffffffffffffff168152505082828151811061175e5761175d6123dd565b5b60200260200101819052508080611774906124ea565b9150506114ab565b508091505090565b600360003373ffffffffffffffffffffffffffffffffffffffff1673ffffffffffffffffffffffffffffffffffffffff168152602001908152602001600020604051806080016040528085815260200184815260200183815260200142815250908060018154018082558091505060019003906000526020600020906004020160009091909190915060008201518160000190816118229190612735565b5060208201518160010190816118389190612735565b50604082015181600201908161184e9190612735565b506060820151816003015550503373ffffffffffffffffffffffffffffffffffffffff167f0b7f1125f9fce40eaeea601bad1ae9ba00b87991447445df1786c355c880d0ce848484426040516118a79493929190611cee565b60405180910390a2505050565b5080546118c090612359565b6000825580601f106118d257506118f1565b601f0160209004906000526020600020908101906118f09190611932565b5b50565b6040518060800160405280606081526020016060815260200160608152602001600073ffffffffffffffffffffffffffffffffffffffff1681525090565b5b8082111561194b576000816000905550600101611933565b5090565b6000604051905090565b600080fd5b600080fd5b600073ffffffffffffffffffffffffffffffffffffffff82169050919050565b600061198e82611963565b9050919050565b61199e81611983565b81146119a957600080fd5b50565b6000813590506119bb81611995565b92915050565b6000602082840312156119d7576119d6611959565b5b60006119e5848285016119ac565b91505092915050565b600081519050919050565b600082825260208201905092915050565b6000819050602082019050919050565b600081519050919050565b600082825260208201905092915050565b60005b83811015611a54578082015181840152602081019050611a39565b60008484015250505050565b6000601f19601f8301169050919050565b6000611a7c82611a1a565b611a868185611a25565b9350611a96818560208601611a36565b611a9f81611a60565b840191505092915050565b6000819050919050565b611abd81611aaa565b82525050565b60006060830160008301518482036000860152611ae08282611a71565b91505060208301518482036020860152611afa8282611a71565b9150506040830151611b0f6040860182611ab4565b508091505092915050565b6000611b268383611ac3565b905092915050565b6000602082019050919050565b6000611b46826119ee565b611b5081856119f9565b935083602082028501611b6285611a0a565b8060005b85811015611b9e5784840389528151611b7f8582611b1a565b9450611b8a83611b2e565b925060208a01995050600181019050611b66565b50829750879550505050505092915050565b60006020820190508181036000830152611bca8184611b3b565b905092915050565b611bdb81611aaa565b8114611be657600080fd5b50565b600081359050611bf881611bd2565b92915050565b600060208284031215611c1457611c13611959565b5b6000611c2284828501611be9565b91505092915050565b611c3481611983565b82525050565b6000602082019050611c4f6000830184611c2b565b92915050565b60008060408385031215611c6c57611c6b611959565b5b6000611c7a858286016119ac565b9250506020611c8b85828601611be9565b9150509250929050565b600082825260208201905092915050565b6000611cb182611a1a565b611cbb8185611c95565b9350611ccb818560208601611a36565b611cd481611a60565b840191505092915050565b611ce881611aaa565b82525050565b60006080820190508181036000830152611d088187611ca6565b90508181036020830152611d1c8186611ca6565b90508181036040830152611d308185611ca6565b9050611d3f6060830184611cdf565b95945050505050565b600080fd5b600080fd5b7f4e487b7100000000000000000000000000000000000000000000000000000000600052604160045260246000fd5b611d8a82611a60565b810181811067ffffffffffffffff82111715611da957611da8611d52565b5b80604052505050565b6000611dbc61194f565b9050611dc88282611d81565b919050565b600067ffffffffffffffff821115611de857611de7611d52565b5b611df182611a60565b9050602081019050919050565b82818337600083830152505050565b6000611e20611e1b84611dcd565b611db2565b905082815260208101848484011115611e3c57611e3b611d4d565b5b611e47848285611dfe565b509392505050565b600082601f830112611e6457611e63611d48565b5b8135611e74848260208601611e0d565b91505092915050565b60008060408385031215611e9457611e93611959565b5b600083013567ffffffffffffffff811115611eb257611eb161195e565b5b611ebe85828601611e4f565b925050602083013567ffffffffffffffff811115611edf57611ede61195e565b5b611eeb85828601611e4f565b9150509250929050565b600080600060608486031215611f0e57611f0d611959565b5b600084013567ffffffffffffffff811115611f2c57611f2b61195e565b5b611f3886828701611e4f565b935050602084013567ffffffffffffffff811115611f5957611f5861195e565b5b611f6586828701611e4f565b925050604084013567ffffffffffffffff811115611f8657611f8561195e565b5b611f9286828701611e4f565b9150509250925092565b600081519050919050565b600082825260208201905092915050565b6000819050602082019050919050565b60006080830160008301518482036000860152611fe58282611a71565b91505060208301518482036020860152611fff8282611a71565b915050604083015184820360408601526120198282611a71565b915050606083015161202e6060860182611ab4565b508091505092915050565b60006120458383611fc8565b905092915050565b6000602082019050919050565b600061206582611f9c565b61206f8185611fa7565b93508360208202850161208185611fb8565b8060005b858110156120bd578484038952815161209e8582612039565b94506120a98361204d565b925060208a01995050600181019050612085565b50829750879550505050505092915050565b600060208201905081810360008301526120e9818461205a565b905092915050565b60008115159050919050565b612106816120f1565b82525050565b600060208201905061212160008301846120fd565b92915050565b600060808201905081810360008301526121418187611ca6565b905081810360208301526121558186611ca6565b905081810360408301526121698185611ca6565b90506121786060830184611c2b565b95945050505050565b6000606082019050818103600083015261219b8186611ca6565b905081810360208301526121af8185611ca6565b90506121be6040830184611cdf565b949350505050565b600081519050919050565b600082825260208201905092915050565b6000819050602082019050919050565b6121fb81611983565b82525050565b6000608083016000830151848203600086015261221e8282611a71565b915050602083015184820360208601526122388282611a71565b915050604083015184820360408601526122528282611a71565b915050606083015161226760608601826121f2565b508091505092915050565b600061227e8383612201565b905092915050565b6000602082019050919050565b600061229e826121c6565b6122a881856121d1565b9350836020820285016122ba856121e2565b8060005b858110156122f657848403895281516122d78582612272565b94506122e283612286565b925060208a019950506001810190506122be565b50829750879550505050505092915050565b600060208201905081810360008301526123228184612293565b905092915050565b7f4e487b7100000000000000000000000000000000000000000000000000000000600052602260045260246000fd5b6000600282049050600182168061237157607f821691505b6020821081036123845761238361232a565b5b50919050565b600081905092915050565b60006123a082611a1a565b6123aa818561238a565b93506123ba818560208601611a36565b80840191505092915050565b60006123d28284612395565b915081905092915050565b7f4e487b7100000000000000000000000000000000000000000000000000000000600052603260045260246000fd5b60008190508160005260206000209050919050565b6000815461242e81612359565b612438818661238a565b9450600182166000811461245357600181146124685761249b565b60ff198316865281151582028601935061249b565b6124718561240c565b60005b8381101561249357815481890152600182019150602081019050612474565b838801955050505b50505092915050565b60006124b08284612421565b915081905092915050565b7f4e487b7100000000000000000000000000000000000000000000000000000000600052601160045260246000fd5b60006124f582611aaa565b91507fffffffffffffffffffffffffffffffffffffffffffffffffffffffffffffffff8203612527576125266124bb565b5b600182019050919050565b7f4e6f20646f63746f7220666f756e6420696e2074686973206c6f636174696f6e600082015250565b6000612568602083611c95565b915061257382612532565b602082019050919050565b600060208201905081810360008301526125978161255b565b9050919050565b60006020601f8301049050919050565b600082821b905092915050565b6000600883026125eb7fffffffffffffffffffffffffffffffffffffffffffffffffffffffffffffffff826125ae565b6125f586836125ae565b95508019841693508086168417925050509392505050565b6000819050919050565b600061263261262d61262884611aaa565b61260d565b611aaa565b9050919050565b6000819050919050565b61264c83612617565b61266061265882612639565b8484546125bb565b825550505050565b600090565b612675612668565b612680818484612643565b505050565b5b818110156126a45761269960008261266d565b600181019050612686565b5050565b601f8211156126e9576126ba8161240c565b6126c38461259e565b810160208510156126d2578190505b6126e66126de8561259e565b830182612685565b50505b505050565b600082821c905092915050565b600061270c600019846008026126ee565b1980831691505092915050565b600061272583836126fb565b9150826002028217905092915050565b61273e82611a1a565b67ffffffffffffffff81111561275757612756611d52565b5b6127618254612359565b61276c8282856126a8565b600060209050601f83116001811461279f576000841561278d578287015190505b6127978582612719565b8655506127ff565b601f1984166127ad8661240c565b60005b828110156127d5578489015182556001820191506020850194506020810190506127b0565b868310156127f257848901516127ee601f8916826126fb565b8355505b6001600288020188555050505b505050505050565b7f446f63746f7220616c7265616479207265676973746572656400000000000000600082015250565b600061283d601983611c95565b915061284882612807565b602082019050919050565b6000602082019050818103600083015261286c81612830565b9050919050565b6000606082019050818103600083015261288d8186611ca6565b905081810360208301526128a18185611ca6565b905081810360408301526128b58184611ca6565b9050949350505050565b7f496e76616c696420696e64657800000000000000000000000000000000000000600082015250565b60006128f5600d83611c95565b9150612900826128bf565b602082019050919050565b60006020820190508181036000830152612924816128e8565b9050919050565b600061293682611aaa565b915061294183611aaa565b9250828203905081811115612959576129586124bb565b5b92915050565b60008154905061296e81612359565b9050919050565b818103612983575050612a5b565b61298c8261295f565b67ffffffffffffffff8111156129a5576129a4611d52565b5b6129af8254612359565b6129ba8282856126a8565b6000601f8311600181146129e957600084156129d7578287015490505b6129e18582612719565b865550612a54565b601f1984166129f78761240c565b9650612a028661240c565b60005b82811015612a2a57848901548255600182019150600185019450602081019050612a05565b86831015612a475784890154612a43601f8916826126fb565b8355505b6001600288020188555050505b5050505050505b565b7f4e487b7100000000000000000000000000000000000000000000000000000000600052603160045260246000fd5b6000602082019050612aa16000830184611cdf565b9291505056fea2646970667358221220131ad83dfd824dbd41cc928d69161e42bb570abc956e17ca86f3691dd416cb1364736f6c63430008140033",
  "linkReferences": {},
  "deployedLinkReferences": {}
}