{
  "_format": "hh-sol-artifact-1",
  "contractName": "AnalysisHistory",
  "sourceName": "contracts/AnalysisHistory.sol",
  "abi": [
    {
      "anonymous": false,
      "inputs": [
        {
          "indexed": true,
          "internalType": "address",
          "name": "user",
          "type": "address"
        },
        {
          "indexed": false,
          "internalType": "string",
          "name": "name",
          "type": "string"
        },
        {
          "indexed": false,
          "internalType": "string",
          "name": "residence",
          "type": "string"
        },
        {
          "indexed": false,
          "internalType": "string",
          "name": "result",
          "type": "string"
        },
        {
          "indexed": false,
          "internalType": "uint256",
          "name": "timestamp",
          "type": "uint256"
        }
      ],
      "name": "AnalysisAdded",
      "type": "event"
    },
    {
      "inputs": [
        {
          "internalType": "string",
          "name": "name",
          "type": "string"
        },
        {
          "internalType": "string",
          "name": "residence",
          "type": "string"
        },
        {
          "internalType": "string",
          "name": "result",
          "type": "string"
        }
      ],
      "name": "addAnalysis",
      "outputs": [],
      "stateMutability": "nonpayable",
      "type": "function"
    },
    {
      "inputs": [
        {
          "internalType": "address",
          "name": "user",
          "type": "address"
        }
      ],
      "name": "getHistory",
      "outputs": [
        {
          "components": [
            {
              "internalType": "string",
              "name": "name",
              "type": "string"
            },
            {
              "internalType": "string",
              "name": "residence",
              "type": "string"
            },
            {
              "internalType": "string",
              "name": "result",
              "type": "string"
            },
            {
              "internalType": "uint256",
              "name": "timestamp",
              "type": "uint256"
            }
          ],
          "internalType": "struct AnalysisHistory.Analysis[]",
          "name": "",
          "type": "tuple[]"
        }
      ],
      "stateMutability": "view",
      "type": "function"
    },
    {
      "inputs": [
        {
          "internalType": "address",
          "name": "",
          "type": "address"
        },
        {
          "internalType": "uint256",
          "name": "",
          "type": "uint256"
        }
      ],
      "name": "userHistory",
      "outputs": [
        {
          "internalType": "string",
          "name": "name",
          "type": "string"
        },
        {
          "internalType": "string",
          "name": "residence",
          "type": "string"
        },
        {
          "internalType": "string",
          "name": "result",
          "type": "string"
        },
        {
          "internalType": "uint256",
          "name": "timestamp",
          "type": "uint256"
        }
      ],
      "stateMutability": "view",
      "type": "function"
    }
  ],
  "bytecode": "0x608060405234801561001057600080fd5b50610ee2806100206000396000f3fe608060405234801561001057600080fd5b50600436106100415760003560e01c806322e8b990146100465780638039681114610079578063fa528edb146100a9575b600080fd5b610060600480360381019061005b91906106de565b6100c5565b60405161007094939291906107bd565b60405180910390f35b610093600480360381019061008e9190610817565b6102aa565b6040516100a091906109d0565b60405180910390f35b6100c360048036038101906100be9190610b27565b610507565b005b600060205281600052604060002081815481106100e157600080fd5b90600052602060002090600402016000915091505080600001805461010590610bfd565b80601f016020809104026020016040519081016040528092919081815260200182805461013190610bfd565b801561017e5780601f106101535761010080835404028352916020019161017e565b820191906000526020600020905b81548152906001019060200180831161016157829003601f168201915b50505050509080600101805461019390610bfd565b80601f01602080910402602001604051908101604052809291908181526020018280546101bf90610bfd565b801561020c5780601f106101e15761010080835404028352916020019161020c565b820191906000526020600020905b8154815290600101906020018083116101ef57829003601f168201915b50505050509080600201805461022190610bfd565b80601f016020809104026020016040519081016040528092919081815260200182805461024d90610bfd565b801561029a5780601f1061026f5761010080835404028352916020019161029a565b820191906000526020600020905b81548152906001019060200180831161027d57829003601f168201915b5050505050908060030154905084565b60606000808373ffffffffffffffffffffffffffffffffffffffff1673ffffffffffffffffffffffffffffffffffffffff168152602001908152602001600020805480602002602001604051908101604052809291908181526020016000905b828210156104fc578382906000526020600020906004020160405180608001604052908160008201805461033d90610bfd565b80601f016020809104026020016040519081016040528092919081815260200182805461036990610bfd565b80156103b65780601f1061038b576101008083540402835291602001916103b6565b820191906000526020600020905b81548152906001019060200180831161039957829003601f168201915b505050505081526020016001820180546103cf90610bfd565b80601f01602080910402602001604051908101604052809291908181526020018280546103fb90610bfd565b80156104485780601f1061041d57610100808354040283529160200191610448565b820191906000526020600020905b81548152906001019060200180831161042b57829003601f168201915b5050505050815260200160028201805461046190610bfd565b80601f016020809104026020016040519081016040528092919081815260200182805461048d90610bfd565b80156104da5780601f106104af576101008083540402835291602001916104da565b820191906000526020600020905b8154815290600101906020018083116104bd57829003601f168201915b505050505081526020016003820154815250508152602001906001019061030a565b505050509050919050565b6000803373ffffffffffffffffffffffffffffffffffffffff1673ffffffffffffffffffffffffffffffffffffffff168152602001908152602001600020604051806080016040528085815260200184815260200183815260200142815250908060018154018082558091505060019003906000526020600020906004020160009091909190915060008201518160000190816105a49190610dda565b5060208201518160010190816105ba9190610dda565b5060408201518160020190816105d09190610dda565b506060820151816003015550503373ffffffffffffffffffffffffffffffffffffffff167f0b7f1125f9fce40eaeea601bad1ae9ba00b87991447445df1786c355c880d0ce8484844260405161062994939291906107bd565b60405180910390a2505050565b6000604051905090565b600080fd5b600080fd5b600073ffffffffffffffffffffffffffffffffffffffff82169050919050565b60006106758261064a565b9050919050565b6106858161066a565b811461069057600080fd5b50565b6000813590506106a28161067c565b92915050565b6000819050919050565b6106bb816106a8565b81146106c657600080fd5b50565b6000813590506106d8816106b2565b92915050565b600080604083850312156106f5576106f4610640565b5b600061070385828601610693565b9250506020610714858286016106c9565b9150509250929050565b600081519050919050565b600082825260208201905092915050565b60005b8381101561075857808201518184015260208101905061073d565b60008484015250505050565b6000601f19601f8301169050919050565b60006107808261071e565b61078a8185610729565b935061079a81856020860161073a565b6107a381610764565b840191505092915050565b6107b7816106a8565b82525050565b600060808201905081810360008301526107d78187610775565b905081810360208301526107eb8186610775565b905081810360408301526107ff8185610775565b905061080e60608301846107ae565b95945050505050565b60006020828403121561082d5761082c610640565b5b600061083b84828501610693565b91505092915050565b600081519050919050565b600082825260208201905092915050565b6000819050602082019050919050565b600082825260208201905092915050565b600061088c8261071e565b6108968185610870565b93506108a681856020860161073a565b6108af81610764565b840191505092915050565b6108c3816106a8565b82525050565b600060808301600083015184820360008601526108e68282610881565b915050602083015184820360208601526109008282610881565b9150506040830151848203604086015261091a8282610881565b915050606083015161092f60608601826108ba565b508091505092915050565b600061094683836108c9565b905092915050565b6000602082019050919050565b600061096682610844565b610970818561084f565b93508360208202850161098285610860565b8060005b858110156109be578484038952815161099f858261093a565b94506109aa8361094e565b925060208a01995050600181019050610986565b50829750879550505050505092915050565b600060208201905081810360008301526109ea818461095b565b905092915050565b600080fd5b600080fd5b7f4e487b7100000000000000000000000000000000000000000000000000000000600052604160045260246000fd5b610a3482610764565b810181811067ffffffffffffffff82111715610a5357610a526109fc565b5b80604052505050565b6000610a66610636565b9050610a728282610a2b565b919050565b600067ffffffffffffffff821115610a9257610a916109fc565b5b610a9b82610764565b9050602081019050919050565b82818337600083830152505050565b6000610aca610ac584610a77565b610a5c565b905082815260208101848484011115610ae657610ae56109f7565b5b610af1848285610aa8565b509392505050565b600082601f830112610b0e57610b0d6109f2565b5b8135610b1e848260208601610ab7565b91505092915050565b600080600060608486031215610b4057610b3f610640565b5b600084013567ffffffffffffffff811115610b5e57610b5d610645565b5b610b6a86828701610af9565b935050602084013567ffffffffffffffff811115610b8b57610b8a610645565b5b610b9786828701610af9565b925050604084013567ffffffffffffffff811115610bb857610bb7610645565b5b610bc486828701610af9565b9150509250925092565b7f4e487b7100000000000000000000000000000000000000000000000000000000600052602260045260246000fd5b60006002820490506001821680610c1557607f821691505b602082108103610c2857610c27610bce565b5b50919050565b60008190508160005260206000209050919050565b60006020601f8301049050919050565b600082821b905092915050565b600060088302610c907fffffffffffffffffffffffffffffffffffffffffffffffffffffffffffffffff82610c53565b610c9a8683610c53565b95508019841693508086168417925050509392505050565b6000819050919050565b6000610cd7610cd2610ccd846106a8565b610cb2565b6106a8565b9050919050565b6000819050919050565b610cf183610cbc565b610d05610cfd82610cde565b848454610c60565b825550505050565b600090565b610d1a610d0d565b610d25818484610ce8565b505050565b5b81811015610d4957610d3e600082610d12565b600181019050610d2b565b5050565b601f821115610d8e57610d5f81610c2e565b610d6884610c43565b81016020851015610d77578190505b610d8b610d8385610c43565b830182610d2a565b50505b505050565b600082821c905092915050565b6000610db160001984600802610d93565b1980831691505092915050565b6000610dca8383610da0565b9150826002028217905092915050565b610de38261071e565b67ffffffffffffffff811115610dfc57610dfb6109fc565b5b610e068254610bfd565b610e11828285610d4d565b600060209050601f831160018114610e445760008415610e32578287015190505b610e3c8582610dbe565b865550610ea4565b601f198416610e5286610c2e565b60005b82811015610e7a57848901518255600182019150602085019450602081019050610e55565b86831015610e975784890151610e93601f891682610da0565b8355505b6001600288020188555050505b50505050505056fea2646970667358221220f2868fa38f1c6e7efacaedc89be055a600b221ae7be0f575cb929ec18b737cc664736f6c63430008140033",
  "linkReferences": {},
  "deployedLinkReferences": {}
}